{
  "abi": [
    {
      "type": "function",
      "name": "auctionCount",
      "inputs": [],
      "outputs": [
        {
          "name": "",
          "type": "uint256",
          "internalType": "uint256"
        }
      ],
      "stateMutability": "view"
    },
    {
      "type": "function",
      "name": "auctions",
      "inputs": [
        {
          "name": "",
          "type": "uint256",
          "internalType": "uint256"
        }
      ],
      "outputs": [
        {
          "name": "seller",
          "type": "address",
          "internalType": "address payable"
        },
        {
          "name": "startingPrice",
          "type": "uint256",
          "internalType": "uint256"
        },
        {
          "name": "highestBid",
          "type": "uint256",
          "internalType": "uint256"
        },
        {
          "name": "highestBidder",
          "type": "address",
          "internalType": "address"
        },
        {
          "name": "endTime",
          "type": "uint256",
          "internalType": "uint256"
        },
        {
          "name": "finalized",
          "type": "bool",
          "internalType": "bool"
        }
      ],
      "stateMutability": "view"
    },
    {
      "type": "function",
      "name": "createAuction",
      "inputs": [
        {
          "name": "_startingPrice",
          "type": "uint256",
          "internalType": "uint256"
        },
        {
          "name": "_duration",
          "type": "uint256",
          "internalType": "uint256"
        }
      ],
      "outputs": [],
      "stateMutability": "nonpayable"
    },
    {
      "type": "function",
      "name": "finalizeAuction",
      "inputs": [
        {
          "name": "_auctionId",
          "type": "uint256",
          "internalType": "uint256"
        }
      ],
      "outputs": [],
      "stateMutability": "nonpayable"
    },
    {
      "type": "function",
      "name": "getAuction",
      "inputs": [
        {
          "name": "_auctionId",
          "type": "uint256",
          "internalType": "uint256"
        }
      ],
      "outputs": [
        {
          "name": "",
          "type": "tuple",
          "internalType": "struct AuctionHouse.Auction",
          "components": [
            {
              "name": "seller",
              "type": "address",
              "internalType": "address payable"
            },
            {
              "name": "startingPrice",
              "type": "uint256",
              "internalType": "uint256"
            },
            {
              "name": "highestBid",
              "type": "uint256",
              "internalType": "uint256"
            },
            {
              "name": "highestBidder",
              "type": "address",
              "internalType": "address"
            },
            {
              "name": "endTime",
              "type": "uint256",
              "internalType": "uint256"
            },
            {
              "name": "finalized",
              "type": "bool",
              "internalType": "bool"
            }
          ]
        }
      ],
      "stateMutability": "view"
    },
    {
      "type": "function",
      "name": "placeBid",
      "inputs": [
        {
          "name": "_auctionId",
          "type": "uint256",
          "internalType": "uint256"
        }
      ],
      "outputs": [],
      "stateMutability": "payable"
    },
    {
      "type": "event",
      "name": "AuctionCreated",
      "inputs": [
        {
          "name": "auctionId",
          "type": "uint256",
          "indexed": false,
          "internalType": "uint256"
        },
        {
          "name": "seller",
          "type": "address",
          "indexed": false,
          "internalType": "address"
        },
        {
          "name": "startingPrice",
          "type": "uint256",
          "indexed": false,
          "internalType": "uint256"
        },
        {
          "name": "endTime",
          "type": "uint256",
          "indexed": false,
          "internalType": "uint256"
        }
      ],
      "anonymous": false
    },
    {
      "type": "event",
      "name": "AuctionFinalized",
      "inputs": [
        {
          "name": "auctionId",
          "type": "uint256",
          "indexed": false,
          "internalType": "uint256"
        },
        {
          "name": "winner",
          "type": "address",
          "indexed": false,
          "internalType": "address"
        },
        {
          "name": "winningBid",
          "type": "uint256",
          "indexed": false,
          "internalType": "uint256"
        }
      ],
      "anonymous": false
    },
    {
      "type": "event",
      "name": "BidPlaced",
      "inputs": [
        {
          "name": "auctionId",
          "type": "uint256",
          "indexed": false,
          "internalType": "uint256"
        },
        {
          "name": "bidder",
          "type": "address",
          "indexed": false,
          "internalType": "address"
        },
        {
          "name": "amount",
          "type": "uint256",
          "indexed": false,
          "internalType": "uint256"
        }
      ],
      "anonymous": false
    }
  ],
  "bytecode": {
    "object": "0x6080604052348015600e575f5ffd5b5061079b8061001c5f395ff3fe608060405260043610610054575f3560e01c80630121683f146100585780632ad7157314610079578063571a26a0146100a157806378bd79351461013d5780639979ef4514610246578063e808386314610259575b5f5ffd5b348015610063575f5ffd5b506100776100723660046106e9565b610278565b005b348015610084575f5ffd5b5061008e60015481565b6040519081526020015b60405180910390f35b3480156100ac575f5ffd5b506100ff6100bb366004610709565b5f602081905290815260409020805460018201546002830154600384015460048501546005909501546001600160a01b039485169593949293919092169160ff1686565b604080516001600160a01b039788168152602081019690965285019390935293166060830152608082019290925290151560a082015260c001610098565b348015610148575f5ffd5b506101ef610157366004610709565b6040805160c0810182525f80825260208201819052918101829052606081018290526080810182905260a0810191909152505f9081526020818152604091829020825160c08101845281546001600160a01b03908116825260018301549382019390935260028201549381019390935260038101549091166060830152600481015460808301526005015460ff16151560a082015290565b604051610098919081516001600160a01b0390811682526020808401519083015260408084015190830152606080840151909116908201526080808301519082015260a09182015115159181019190915260c00190565b610077610254366004610709565b610394565b348015610264575f5ffd5b50610077610273366004610709565b610511565b5f81116102cc5760405162461bcd60e51b815260206004820152601f60248201527f4475726174696f6e206d7573742062652067726561746572207468616e20300060448201526064015b60405180910390fd5b600180545f91826102dc83610734565b909155506040805160c081018252338152602081018690529081018590525f606082015290915060808101610311844261074c565b81525f6020918201819052928352828152604092839020825181546001600160a01b03199081166001600160a01b03928316178355928401516001830155938301516002820155606083015160038201805490931694169390931790556080810151600483015560a001516005909101805460ff19169115159190911790555050565b5f81815260208190526040902060040154819042106103e55760405162461bcd60e51b815260206004820152600d60248201526c105d58dd1a5bdb88195b991959609a1b60448201526064016102c3565b5f828152602081905260409020600281015434116104595760405162461bcd60e51b815260206004820152602b60248201527f426964206d75737420626520686967686572207468616e2063757272656e742060448201526a1a1a59da195cdd08189a5960aa1b60648201526084016102c3565b60038101546001600160a01b0316156104ab57600381015460028201546040516001600160a01b039092169181156108fc0291905f818181858888f193505050501580156104a9573d5f5f3e3d5ffd5b505b34600282018190556003820180546001600160a01b031916339081179091556040805186815260208101929092528101919091527f0e54eff26401bf69b81b26f60bd85ef47f5d85275c1d268d84f68d6897431c479060600160405180910390a1505050565b5f81815260208190526040902060040154819042101561056b5760405162461bcd60e51b8152602060048201526015602482015274105d58dd1a5bdb881b9bdd08195b991959081e595d605a1b60448201526064016102c3565b5f8281526020819052604090205482906001600160a01b031633146105d25760405162461bcd60e51b815260206004820152601860248201527f4f6e6c792073656c6c65722063616e2066696e616c697a65000000000000000060448201526064016102c3565b5f838152602081905260409020600581015460ff16156106345760405162461bcd60e51b815260206004820152601960248201527f41756374696f6e20616c72656164792066696e616c697a65640000000000000060448201526064016102c3565b60058101805460ff1916600117905560038101546001600160a01b03161561069257805460028201546040516001600160a01b039092169181156108fc0291905f818181858888f19350505050158015610690573d5f5f3e3d5ffd5b505b60038101546002820154604080518781526001600160a01b0390931660208401528201527f4d9113a1377d665eaa1f9168a9c9080f2e488cb820b10149de3d6d2e0f2780c79060600160405180910390a150505050565b5f5f604083850312156106fa575f5ffd5b50508035926020909101359150565b5f60208284031215610719575f5ffd5b5035919050565b634e487b7160e01b5f52601160045260245ffd5b5f6001820161074557610745610720565b5060010190565b8082018082111561075f5761075f610720565b9291505056fea264697066735822122097cfa6daa91cea0a2a90900ec53daabf540ab1949a2fbc53e259942d7b555dee64736f6c634300081c0033",
    "linkReferences": {}
  },
  "methodIdentifiers": {
    "auctionCount()": "2ad71573",
    "auctions(uint256)": "571a26a0",
    "createAuction(uint256,uint256)": "0121683f",
    "finalizeAuction(uint256)": "e8083863",
    "getAuction(uint256)": "78bd7935",
    "placeBid(uint256)": "9979ef45"
  },
  "id": 20
}